{
  "_format": "hh-sol-artifact-1",
  "contractName": "Counter",
  "sourceName": "contracts/Counter.sol",
  "abi": [
    {
      "inputs": [],
      "name": "count",
      "outputs": [],
      "stateMutability": "nonpayable",
      "type": "function"
    },
    {
      "inputs": [],
      "name": "getCounter",
      "outputs": [
        {
          "internalType": "uint256",
          "name": "",
          "type": "uint256"
        }
      ],
      "stateMutability": "view",
      "type": "function"
    }
  ],
  "bytecode": "0x608060405234801561001057600080fd5b50610336806100206000396000f3fe608060405234801561001057600080fd5b50600436106100365760003560e01c806306661abd1461003b5780638ada066e14610045575b600080fd5b610043610063565b005b61004d6100bd565b60405161005a91906101a4565b60405180910390f35b600080815480929190610075906101ee565b91905055506100bb6040518060400160405280600e81526020017f636f756e746572206973206e6f770000000000000000000000000000000000008152506000546100c6565b565b60008054905090565b61015e82826040516024016100dc9291906102d0565b6040516020818303038152906040527f9710a9d0000000000000000000000000000000000000000000000000000000007bffffffffffffffffffffffffffffffffffffffffffffffffffffffff19166020820180517bffffffffffffffffffffffffffffffffffffffffffffffffffffffff8381831617835250505050610162565b5050565b60008151905060006a636f6e736f6c652e6c6f679050602083016000808483855afa5050505050565b6000819050919050565b61019e8161018b565b82525050565b60006020820190506101b96000830184610195565b92915050565b7f4e487b7100000000000000000000000000000000000000000000000000000000600052601160045260246000fd5b60006101f98261018b565b91507fffffffffffffffffffffffffffffffffffffffffffffffffffffffffffffffff82141561022c5761022b6101bf565b5b600182019050919050565b600081519050919050565b600082825260208201905092915050565b60005b83811015610271578082015181840152602081019050610256565b83811115610280576000848401525b50505050565b6000601f19601f8301169050919050565b60006102a282610237565b6102ac8185610242565b93506102bc818560208601610253565b6102c581610286565b840191505092915050565b600060408201905081810360008301526102ea8185610297565b90506102f96020830184610195565b939250505056fea2646970667358221220ef47add0fb1907d755c8753c935dc4ac78c38b9cdba1c755e9a834bdb7bc3af264736f6c634300080a0033",
  "linkReferences": {},
  "deployedLinkReferences": {}
}